{
  "address": "0xe7f1725E7734CE288F8367e1Bb143E90bb3F0512",
  "abi": [
    {
      "inputs": [
        {
          "internalType": "uint256",
          "name": "_minimumContributionInUSD",
          "type": "uint256"
        },
        {
          "internalType": "address",
          "name": "_priceFeed",
          "type": "address"
        }
      ],
      "stateMutability": "nonpayable",
      "type": "constructor"
    },
    {
      "inputs": [],
      "name": "InsufficientContribution",
      "type": "error"
    },
    {
      "inputs": [],
      "name": "OutdatedFeed",
      "type": "error"
    },
    {
      "inputs": [],
      "name": "Unauthorized",
      "type": "error"
    },
    {
      "inputs": [],
      "name": "WithdrawalFailed",
      "type": "error"
    },
    {
      "stateMutability": "payable",
      "type": "fallback"
    },
    {
      "inputs": [],
      "name": "fund",
      "outputs": [],
      "stateMutability": "payable",
      "type": "function"
    },
    {
      "inputs": [],
      "name": "minimumContributionInUSDTimes1e18",
      "outputs": [
        {
          "internalType": "uint256",
          "name": "",
          "type": "uint256"
        }
      ],
      "stateMutability": "view",
      "type": "function"
    },
    {
      "inputs": [],
      "name": "owner",
      "outputs": [
        {
          "internalType": "address",
          "name": "",
          "type": "address"
        }
      ],
      "stateMutability": "view",
      "type": "function"
    },
    {
      "inputs": [],
      "name": "withdraw",
      "outputs": [],
      "stateMutability": "nonpayable",
      "type": "function"
    },
    {
      "stateMutability": "payable",
      "type": "receive"
    }
  ],
  "transactionHash": "0x341ca1c3c3fa4b1fe4b3aca31fb5d817d3b90e36d1e9f348b86e674b4daa4713",
  "args": [
    1000,
    "0x5FbDB2315678afecb367f032d93F642f64180aa3"
  ],
  "numDeployments": 1,
  "solcInputHash": "adfb742002f0d753423110ce9be64e17",
  "bytecode": "0x60e06040523480156200001157600080fd5b5060405162000bc038038062000bc0833981810160405281019062000037919062000169565b3373ffffffffffffffffffffffffffffffffffffffff1660a08173ffffffffffffffffffffffffffffffffffffffff1681525050670de0b6b3a764000082620000819190620001df565b608081815250508073ffffffffffffffffffffffffffffffffffffffff1660c08173ffffffffffffffffffffffffffffffffffffffff168152505050506200022a565b600080fd5b6000819050919050565b620000de81620000c9565b8114620000ea57600080fd5b50565b600081519050620000fe81620000d3565b92915050565b600073ffffffffffffffffffffffffffffffffffffffff82169050919050565b6000620001318262000104565b9050919050565b620001438162000124565b81146200014f57600080fd5b50565b600081519050620001638162000138565b92915050565b60008060408385031215620001835762000182620000c4565b5b60006200019385828601620000ed565b9250506020620001a68582860162000152565b9150509250929050565b7f4e487b7100000000000000000000000000000000000000000000000000000000600052601160045260246000fd5b6000620001ec82620000c9565b9150620001f983620000c9565b92508282026200020981620000c9565b91508282048414831517620002235762000222620001b0565b5b5092915050565b60805160a05160c05161095962000267600039600060db0152600081816101b401526102df01526000818161010f015261030301526109596000f3fe6080604052600436106100435760003560e01c80633ccfd60b1461005c5780638da5cb5b14610073578063b60d42881461009e578063dd69d9bf146100a857610052565b36610052576100506100d3565b005b61005a6100d3565b005b34801561006857600080fd5b506100716101b2565b005b34801561007f57600080fd5b506100886102dd565b6040516100959190610481565b60405180910390f35b6100a66100d3565b005b3480156100b457600080fd5b506100bd610301565b6040516100ca91906104b5565b60405180910390f35b6000806101097f00000000000000000000000000000000000000000000000000000000000000003461032590919063ffffffff16565b915091507f0000000000000000000000000000000000000000000000000000000000000000821015610167576040517f06553c1000000000000000000000000000000000000000000000000000000000815260040160405180910390fd5b610e10814261017691906104ff565b11156101ae576040517fc135b91800000000000000000000000000000000000000000000000000000000815260040160405180910390fd5b5050565b7f000000000000000000000000000000000000000000000000000000000000000073ffffffffffffffffffffffffffffffffffffffff163373ffffffffffffffffffffffffffffffffffffffff1614610237576040517f82b4290000000000000000000000000000000000000000000000000000000000815260040160405180910390fd5b60003373ffffffffffffffffffffffffffffffffffffffff164760405161025d90610564565b60006040518083038185875af1925050503d806000811461029a576040519150601f19603f3d011682016040523d82523d6000602084013e61029f565b606091505b50509050806102da576040517f27fcd9d100000000000000000000000000000000000000000000000000000000815260040160405180910390fd5b50565b7f000000000000000000000000000000000000000000000000000000000000000081565b7f000000000000000000000000000000000000000000000000000000000000000081565b6000806000808473ffffffffffffffffffffffffffffffffffffffff1663feaf968c6040518163ffffffff1660e01b815260040160a060405180830381865afa158015610376573d6000803e3d6000fd5b505050506040513d601f19601f8201168201806040525081019061039a9190610622565b509350509250508473ffffffffffffffffffffffffffffffffffffffff1663313ce5676040518163ffffffff1660e01b8152600401602060405180830381865afa1580156103ec573d6000803e3d6000fd5b505050506040513d601f19601f8201168201806040525081019061041091906106d6565b600a61041c9190610836565b86836104289190610881565b61043291906108f2565b819350935050509250929050565b600073ffffffffffffffffffffffffffffffffffffffff82169050919050565b600061046b82610440565b9050919050565b61047b81610460565b82525050565b60006020820190506104966000830184610472565b92915050565b6000819050919050565b6104af8161049c565b82525050565b60006020820190506104ca60008301846104a6565b92915050565b7f4e487b7100000000000000000000000000000000000000000000000000000000600052601160045260246000fd5b600061050a8261049c565b91506105158361049c565b925082820390508181111561052d5761052c6104d0565b5b92915050565b600081905092915050565b50565b600061054e600083610533565b91506105598261053e565b600082019050919050565b600061056f82610541565b9150819050919050565b600080fd5b600069ffffffffffffffffffff82169050919050565b61059d8161057e565b81146105a857600080fd5b50565b6000815190506105ba81610594565b92915050565b6000819050919050565b6105d3816105c0565b81146105de57600080fd5b50565b6000815190506105f0816105ca565b92915050565b6105ff8161049c565b811461060a57600080fd5b50565b60008151905061061c816105f6565b92915050565b600080600080600060a0868803121561063e5761063d610579565b5b600061064c888289016105ab565b955050602061065d888289016105e1565b945050604061066e8882890161060d565b935050606061067f8882890161060d565b9250506080610690888289016105ab565b9150509295509295909350565b600060ff82169050919050565b6106b38161069d565b81146106be57600080fd5b50565b6000815190506106d0816106aa565b92915050565b6000602082840312156106ec576106eb610579565b5b60006106fa848285016106c1565b91505092915050565b60008160011c9050919050565b6000808291508390505b600185111561075a57808604811115610736576107356104d0565b5b60018516156107455780820291505b808102905061075385610703565b945061071a565b94509492505050565b600082610773576001905061082f565b81610781576000905061082f565b816001811461079757600281146107a1576107d0565b600191505061082f565b60ff8411156107b3576107b26104d0565b5b8360020a9150848211156107ca576107c96104d0565b5b5061082f565b5060208310610133831016604e8410600b84101617156108055782820a905083811115610800576107ff6104d0565b5b61082f565b6108128484846001610710565b92509050818404811115610829576108286104d0565b5b81810290505b9392505050565b60006108418261049c565b915061084c8361069d565b92506108797fffffffffffffffffffffffffffffffffffffffffffffffffffffffffffffffff8484610763565b905092915050565b600061088c8261049c565b91506108978361049c565b92508282026108a58161049c565b915082820484148315176108bc576108bb6104d0565b5b5092915050565b7f4e487b7100000000000000000000000000000000000000000000000000000000600052601260045260246000fd5b60006108fd8261049c565b91506109088361049c565b925082610918576109176108c3565b5b82820490509291505056fea264697066735822122080abb0be106a9c1c89d80bfaae487bc9a8d21002078e6101cdf14ad65036de6264736f6c63430008120033",
  "devdoc": {
    "kind": "dev",
    "methods": {},
    "version": 1
  },
  "userdoc": {
    "kind": "user",
    "methods": {},
    "version": 1
  },
  "storageLayout": {
    "storage": [],
    "types": null
  }
}