{
    "address": "0xe7f1725E7734CE288F8367e1Bb143E90bb3F0512",
    "abi": [
        {
            "inputs": [
                {
                    "internalType": "uint256",
                    "name": "_minimumContributionInUSD",
                    "type": "uint256"
                },
                {
                    "internalType": "address",
                    "name": "_priceFeed",
                    "type": "address"
                }
            ],
            "stateMutability": "nonpayable",
            "type": "constructor"
        },
        {
            "inputs": [],
            "name": "InsufficientContribution",
            "type": "error"
        },
        {
            "inputs": [],
            "name": "OutdatedFeed",
            "type": "error"
        },
        {
            "inputs": [],
            "name": "Unauthorized",
            "type": "error"
        },
        {
            "inputs": [],
            "name": "WithdrawalFailed",
            "type": "error"
        },
        {
            "stateMutability": "payable",
            "type": "fallback"
        },
        {
            "inputs": [
                {
                    "internalType": "address",
                    "name": "",
                    "type": "address"
                }
            ],
            "name": "contributions",
            "outputs": [
                {
                    "internalType": "uint256",
                    "name": "",
                    "type": "uint256"
                }
            ],
            "stateMutability": "view",
            "type": "function"
        },
        {
            "inputs": [],
            "name": "fund",
            "outputs": [],
            "stateMutability": "payable",
            "type": "function"
        },
        {
            "inputs": [
                {
                    "internalType": "uint256",
                    "name": "",
                    "type": "uint256"
                }
            ],
            "name": "funders",
            "outputs": [
                {
                    "internalType": "address",
                    "name": "",
                    "type": "address"
                }
            ],
            "stateMutability": "view",
            "type": "function"
        },
        {
            "inputs": [],
            "name": "minimumContributionInUSDTimes10exp18",
            "outputs": [
                {
                    "internalType": "uint256",
                    "name": "",
                    "type": "uint256"
                }
            ],
            "stateMutability": "view",
            "type": "function"
        },
        {
            "inputs": [],
            "name": "owner",
            "outputs": [
                {
                    "internalType": "address",
                    "name": "",
                    "type": "address"
                }
            ],
            "stateMutability": "view",
            "type": "function"
        },
        {
            "inputs": [],
            "name": "priceFeed",
            "outputs": [
                {
                    "internalType": "contract AggregatorV3Interface",
                    "name": "",
                    "type": "address"
                }
            ],
            "stateMutability": "view",
            "type": "function"
        },
        {
            "inputs": [],
            "name": "withdraw",
            "outputs": [],
            "stateMutability": "nonpayable",
            "type": "function"
        },
        {
            "stateMutability": "payable",
            "type": "receive"
        }
    ],
    "transactionHash": "0xe96cc8a6cc4ee82c1b8c97f029ee4d70382b24825128a2dbe25e9d5a05c923ca",
    "args": [
        100,
        "0x5FbDB2315678afecb367f032d93F642f64180aa3"
    ],
    "numDeployments": 1,
    "solcInputHash": "450aa0a9ff68a334191e7060dbf03399",
    "bytecode": "0x60e06040523480156200001157600080fd5b50604051620011d7380380620011d7833981810160405281019062000037919062000169565b3373ffffffffffffffffffffffffffffffffffffffff1660a08173ffffffffffffffffffffffffffffffffffffffff1681525050670de0b6b3a764000082620000819190620001df565b608081815250508073ffffffffffffffffffffffffffffffffffffffff1660c08173ffffffffffffffffffffffffffffffffffffffff168152505050506200022a565b600080fd5b6000819050919050565b620000de81620000c9565b8114620000ea57600080fd5b50565b600081519050620000fe81620000d3565b92915050565b600073ffffffffffffffffffffffffffffffffffffffff82169050919050565b6000620001318262000104565b9050919050565b620001438162000124565b81146200014f57600080fd5b50565b600081519050620001638162000138565b92915050565b60008060408385031215620001835762000182620000c4565b5b60006200019385828601620000ed565b9250506020620001a68582860162000152565b9150509250929050565b7f4e487b7100000000000000000000000000000000000000000000000000000000600052601160045260246000fd5b6000620001ec82620000c9565b9150620001f983620000c9565b92508282026200020981620000c9565b91508282048414831517620002235762000222620001b0565b5b5092915050565b60805160a05160c051610f686200026f600039600081816101b10152610619015260008181610342015261063d0152600081816101e501526105f50152610f686000f3fe6080604052600436106100745760003560e01c8063741bef1a1161004e578063741bef1a1461010c5780638da5cb5b14610137578063b60d428814610162578063dc0d3dff1461016c57610083565b80633ccfd60b1461008d57806342e94c90146100a45780636d1901b3146100e157610083565b36610083576100816101a9565b005b61008b6101a9565b005b34801561009957600080fd5b506100a2610340565b005b3480156100b057600080fd5b506100cb60048036038101906100c691906108c3565b6105db565b6040516100d89190610909565b60405180910390f35b3480156100ed57600080fd5b506100f66105f3565b6040516101039190610909565b60405180910390f35b34801561011857600080fd5b50610121610617565b60405161012e9190610983565b60405180910390f35b34801561014357600080fd5b5061014c61063b565b60405161015991906109ad565b60405180910390f35b61016a6101a9565b005b34801561017857600080fd5b50610193600480360381019061018e91906109f4565b61065f565b6040516101a091906109ad565b60405180910390f35b6000806101df7f00000000000000000000000000000000000000000000000000000000000000003461069e90919063ffffffff16565b915091507f000000000000000000000000000000000000000000000000000000000000000082101561023d576040517f06553c1000000000000000000000000000000000000000000000000000000000815260040160405180910390fd5b610e10814261024c9190610a50565b1115610284576040517fc135b91800000000000000000000000000000000000000000000000000000000815260040160405180910390fd5b346000803373ffffffffffffffffffffffffffffffffffffffff1673ffffffffffffffffffffffffffffffffffffffff16815260200190815260200160002060008282546102d29190610a84565b925050819055506001339080600181540180825580915050600190039060005260206000200160009091909190916101000a81548173ffffffffffffffffffffffffffffffffffffffff021916908373ffffffffffffffffffffffffffffffffffffffff1602179055505050565b7f000000000000000000000000000000000000000000000000000000000000000073ffffffffffffffffffffffffffffffffffffffff163373ffffffffffffffffffffffffffffffffffffffff16146103c5576040517f82b4290000000000000000000000000000000000000000000000000000000000815260040160405180910390fd5b6000600180548060200260200160405190810160405280929190818152602001828054801561044957602002820191906000526020600020905b8160009054906101000a900473ffffffffffffffffffffffffffffffffffffffff1673ffffffffffffffffffffffffffffffffffffffff16815260200190600101908083116103ff575b5050505050905060008151905060005b818110156104d257600080600085848151811061047957610478610ab8565b5b602002602001015173ffffffffffffffffffffffffffffffffffffffff1673ffffffffffffffffffffffffffffffffffffffff1681526020019081526020016000208190555080806104ca90610ae7565b915050610459565b50600067ffffffffffffffff8111156104ee576104ed610b2f565b5b60405190808252806020026020018201604052801561051c5781602001602082028036833780820191505090505b50600190805190602001906105329291906107b9565b5060003373ffffffffffffffffffffffffffffffffffffffff164760405161055990610b8f565b60006040518083038185875af1925050503d8060008114610596576040519150601f19603f3d011682016040523d82523d6000602084013e61059b565b606091505b50509050806105d6576040517f27fcd9d100000000000000000000000000000000000000000000000000000000815260040160405180910390fd5b505050565b60006020528060005260406000206000915090505481565b7f000000000000000000000000000000000000000000000000000000000000000081565b7f000000000000000000000000000000000000000000000000000000000000000081565b7f000000000000000000000000000000000000000000000000000000000000000081565b6001818154811061066f57600080fd5b906000526020600020016000915054906101000a900473ffffffffffffffffffffffffffffffffffffffff1681565b6000806000808473ffffffffffffffffffffffffffffffffffffffff1663feaf968c6040518163ffffffff1660e01b815260040160a060405180830381865afa1580156106ef573d6000803e3d6000fd5b505050506040513d601f19601f820116820180604052508101906107139190610c31565b509350509250508473ffffffffffffffffffffffffffffffffffffffff1663313ce5676040518163ffffffff1660e01b8152600401602060405180830381865afa158015610765573d6000803e3d6000fd5b505050506040513d601f19601f820116820180604052508101906107899190610ce5565b600a6107959190610e45565b86836107a19190610e90565b6107ab9190610f01565b819350935050509250929050565b828054828255906000526020600020908101928215610832579160200282015b828111156108315782518260006101000a81548173ffffffffffffffffffffffffffffffffffffffff021916908373ffffffffffffffffffffffffffffffffffffffff160217905550916020019190600101906107d9565b5b50905061083f9190610843565b5090565b5b8082111561085c576000816000905550600101610844565b5090565b600080fd5b600073ffffffffffffffffffffffffffffffffffffffff82169050919050565b600061089082610865565b9050919050565b6108a081610885565b81146108ab57600080fd5b50565b6000813590506108bd81610897565b92915050565b6000602082840312156108d9576108d8610860565b5b60006108e7848285016108ae565b91505092915050565b6000819050919050565b610903816108f0565b82525050565b600060208201905061091e60008301846108fa565b92915050565b6000819050919050565b600061094961094461093f84610865565b610924565b610865565b9050919050565b600061095b8261092e565b9050919050565b600061096d82610950565b9050919050565b61097d81610962565b82525050565b60006020820190506109986000830184610974565b92915050565b6109a781610885565b82525050565b60006020820190506109c2600083018461099e565b92915050565b6109d1816108f0565b81146109dc57600080fd5b50565b6000813590506109ee816109c8565b92915050565b600060208284031215610a0a57610a09610860565b5b6000610a18848285016109df565b91505092915050565b7f4e487b7100000000000000000000000000000000000000000000000000000000600052601160045260246000fd5b6000610a5b826108f0565b9150610a66836108f0565b9250828203905081811115610a7e57610a7d610a21565b5b92915050565b6000610a8f826108f0565b9150610a9a836108f0565b9250828201905080821115610ab257610ab1610a21565b5b92915050565b7f4e487b7100000000000000000000000000000000000000000000000000000000600052603260045260246000fd5b6000610af2826108f0565b91507fffffffffffffffffffffffffffffffffffffffffffffffffffffffffffffffff8203610b2457610b23610a21565b5b600182019050919050565b7f4e487b7100000000000000000000000000000000000000000000000000000000600052604160045260246000fd5b600081905092915050565b50565b6000610b79600083610b5e565b9150610b8482610b69565b600082019050919050565b6000610b9a82610b6c565b9150819050919050565b600069ffffffffffffffffffff82169050919050565b610bc381610ba4565b8114610bce57600080fd5b50565b600081519050610be081610bba565b92915050565b6000819050919050565b610bf981610be6565b8114610c0457600080fd5b50565b600081519050610c1681610bf0565b92915050565b600081519050610c2b816109c8565b92915050565b600080600080600060a08688031215610c4d57610c4c610860565b5b6000610c5b88828901610bd1565b9550506020610c6c88828901610c07565b9450506040610c7d88828901610c1c565b9350506060610c8e88828901610c1c565b9250506080610c9f88828901610bd1565b9150509295509295909350565b600060ff82169050919050565b610cc281610cac565b8114610ccd57600080fd5b50565b600081519050610cdf81610cb9565b92915050565b600060208284031215610cfb57610cfa610860565b5b6000610d0984828501610cd0565b91505092915050565b60008160011c9050919050565b6000808291508390505b6001851115610d6957808604811115610d4557610d44610a21565b5b6001851615610d545780820291505b8081029050610d6285610d12565b9450610d29565b94509492505050565b600082610d825760019050610e3e565b81610d905760009050610e3e565b8160018114610da65760028114610db057610ddf565b6001915050610e3e565b60ff841115610dc257610dc1610a21565b5b8360020a915084821115610dd957610dd8610a21565b5b50610e3e565b5060208310610133831016604e8410600b8410161715610e145782820a905083811115610e0f57610e0e610a21565b5b610e3e565b610e218484846001610d1f565b92509050818404811115610e3857610e37610a21565b5b81810290505b9392505050565b6000610e50826108f0565b9150610e5b83610cac565b9250610e887fffffffffffffffffffffffffffffffffffffffffffffffffffffffffffffffff8484610d72565b905092915050565b6000610e9b826108f0565b9150610ea6836108f0565b9250828202610eb4816108f0565b91508282048414831517610ecb57610eca610a21565b5b5092915050565b7f4e487b7100000000000000000000000000000000000000000000000000000000600052601260045260246000fd5b6000610f0c826108f0565b9150610f17836108f0565b925082610f2757610f26610ed2565b5b82820490509291505056fea26469706673582212205539b427c794e02d45cb744ebf6f5b8356837f4210223e0328b53069b862c8ee64736f6c63430008120033",
    "devdoc": {
        "author": "Solomon Botchway",
        "details": "This makes use of chainlink's price feeds",
        "kind": "dev",
        "methods": {
            "constructor": {
                "details": "The minimum USD contribution is multiplied by 10**18 before being stored This is to make the fund function more gas efficient by avoiding a division of 10**18 every time the fund function is called",
                "params": {
                    "_minimumContributionInUSD": "is minimum contribution ammount in USD",
                    "_priceFeed": "is the address of the price feed contract"
                }
            },
            "fund()": {
                "details": "USD price is retrieved from chainlink pricefeed"
            },
            "withdraw()": {
                "details": "only the owner can call this function and the contributors are reset"
            }
        },
        "title": "A crowdfunding contract",
        "version": 1
    },
    "userdoc": {
        "kind": "user",
        "methods": {
            "fund()": {
                "notice": "Make a contribution to the contract"
            },
            "withdraw()": {
                "notice": "Withdraw all the funds in the contract"
            }
        },
        "notice": "This is just a demo contract to demonstrate crowfunding",
        "version": 1
    },
    "storageLayout": {
        "storage": [
            {
                "astId": 336,
                "contract": "contracts/FundMe.sol:FundMe",
                "label": "contributions",
                "offset": 0,
                "slot": "0",
                "type": "t_mapping(t_address,t_uint256)"
            },
            {
                "astId": 339,
                "contract": "contracts/FundMe.sol:FundMe",
                "label": "funders",
                "offset": 0,
                "slot": "1",
                "type": "t_array(t_address)dyn_storage"
            }
        ],
        "types": {
            "t_address": {
                "encoding": "inplace",
                "label": "address",
                "numberOfBytes": "20"
            },
            "t_array(t_address)dyn_storage": {
                "base": "t_address",
                "encoding": "dynamic_array",
                "label": "address[]",
                "numberOfBytes": "32"
            },
            "t_mapping(t_address,t_uint256)": {
                "encoding": "mapping",
                "key": "t_address",
                "label": "mapping(address => uint256)",
                "numberOfBytes": "32",
                "value": "t_uint256"
            },
            "t_uint256": {
                "encoding": "inplace",
                "label": "uint256",
                "numberOfBytes": "32"
            }
        }
    }
}